S0180000417564696F4D6F74682D50726F6A6563742E7333374E
S21400000000800020F95A0000255B0000255B0000F8
S214000010255B0000255B0000255B0000255B0000DB
S214000020255B0000255B0000255B0000255B0000CB
S214000030255B0000255B0000255B0000255B0000BB
S214000040C94200007D250000255B0000255B0000FE
S214000050255B000049150000255B00009125000087
S214000060255B0000255B0000255B0000255B00008B
S214000070B5250000255B0000255B0000255B000021
S214000080255B0000255B0000255B0000255B00006B
S214000090255B0000255B0000255B0000255B00005B
S2140000A0255B0000255B0000255B0000255B00004B
S2140000B0255B0000255B0000255B0000255B00003B
S2140000C0255B0000255B0000255B0000255B00002B
S2140000D0255B0000255B0000255B0000255B00001B
S2140000E010B5054C237833B9044B13B10448AFF36D
S2140000F000800123237010BD000B002000000000CC
S214000100D45C0300084B10B51BB108480849AFF390
S21400011000800848036803B910BD074B002BFBD0CE
S214000120BDE81040184700BF00000000D45C030084
S214000130040B0020840A002000000000154B002B52
S21400014008BF134B9D46A3F5803A00218B460F4609
S2140001501348144A121A0BF078FE0F4B002B00D0EF
S21400016098470E4B002B00D0984700200021040033
S2140001700D000D48002802D00C48AFF300800BF0AD
S2140001802BFE200029000AF093FF0BF069FD00BF4C
S21400019000000800008000200000000000000000B2
S2140001A0000B0020042600200000000000000000D5
S2140001B0024B1B6893F82000704700BF0000002029
S2140001C02DE9F843DFF89891C5B2D9F8004010F051
S2140001D0800F05F00F00984604EB00030F4614BF8F
S2140001E093F8AC3093F8BC301646002B40F08B806A
S2140001F0002840F08E803434B6F5002F80F28980D7
S214000200A28996FBF2F2B2F5806F80F28280BB077D
S2140002107FD104F051F8A37825785901002D48D1F4
S2140002204C4A8A5812F4002F03D0C2F34052002AD8
S2140002307DD194F82020002A7FD1002B3FD0D9F81A
S214000240003093F82030052B6BD1A76026616261E1
S214000250002D78D10223C4F8248084F82030002EA4
S2140002605BD0A3895A1E1644B6FBF3F603FB06F2D0
S214000270F604DFF8E0E07546F4468E441643DEF8F2
S214000280103003F060431E43CEF81060A378A261DE
S2140002905B019C44CCF81470A2785201535923F0A9
S2140002A03C4343F00443535104F00AF80020BDE8F1
S2140002B0F883294A8A5812F4002FB6D1B9E7A189E3
S2140002C0264AD9F8005063614FF0020E266123706B
S2140002D0A760C4F8248084F820E041F40023C2F824
S2140002E01473D5F8CC10C2F81033D2F8003341F0AE
S2140002F0044123F03C430B43C2F8003303F0E0FF15
S2140003000020BDE8F88303EB830304EBC304343416
S21400031072E76FF00300BDE8F883A2894FF4002669
S214000320A7E703F0CDFF6FF00800BDE8F88303F001
S214000330C7FF6FF00400BDE8F88303F0C1FF6FF05D
S2140003400100BDE8F88303F0BBFF6FF00300BDE8D3
S214000350F88300BF000B1040000910400008104052
S21400036000000020094B1B681A6B0146526893F880
S214000370200083F82200062908BF83F8210083F8AE
S214000380201012B1884200D01047704700000020AD
S2140003902DE9F041DFF890811546D8F80040C2B24A
S2140003A002F00F021F46A3180E4601064CBF93F834
S2140003B0AC3093F8BC30002B40F08A80002A40F026
S2140003C08D803434B5F5002F80F28880A28995FBA5
S2140003D0F2F2B2F5806F80F28180B3077ED103F02F
S2140003E06BFFA37821784FEA431E002942D14B4A7F
S2140003F05EF8022012F4002F03D0C2F34052002A07
S21400040079D194F82020002A7BD1002B39D0D8F857
S214000410003093F82030052B67D1A6602561626115
S214000420002974D00123676284F82030002D59D04B
S214000430A289531E2B44B3FBF2F3DB04384F394634
S214000440BC4677443A6902F0004215432B433B61B1
S214000450A3785B019C44CCF81460A27852015358F0
S21400046023F03C4343F00443535003F029FF00209D
S214000470BDE8F0812A4A5EF8022012F4002FBCD1B3
S214000480BFE70122A660256163616762227084F877
S214000490202005B96270A2892249D8F80030C1F838
S2140004A01461954228BF154645F40025D3F8CC20A4
S2140004B0C1F81051D1F8003142F0044223F03C4319
S2140004C01343C1F8003103F0FBFE0020BDE8F081C5
S2140004D003EB830304EBC304343473E76FF00300C9
S2140004E0BDE8F0814FF40023A8E703F0E9FE6FF0C3
S2140004F00800BDE8F08103F0E3FE6FF00400BDE8FD
S214000500F08103F0DDFE6FF00100BDE8F08103F03E
S214000510D7FE6FF00300BDE8F08100BF000B10406F
S214000520000910400008104000000020036B9B6884
S2140005302DE9F041054604682BB120469847C61CB5
S21400054001D0BDE8F081237813F0600F1AD16378EC
S2140005500B2B17D8DFE813F07A00AF001600F50073
S21400056016004201690116008E01BE012C021A0017
S2140005709A883AB95B88012B04D195F82020052A81
S21400058000F081824FF0FF30BDE8F0812B68EA7FF3
S21400059099889142F6D2DA88002AF3D15A88002A3E
S2140005A0F0D195F82020052AECD11B7803F01F0324
S2140005B0012BE7D1C04B1B6893F85C20002A40F063
S2140005C0378293F85E00BD4EB3F86A2040011504EA
S2140005D08459270400F11A83B94AB3F8681093F8CF
S2140005E0607022400A4342F0C05242F4004242EA9F
S2140005F087428251B349CA692A43CA6193F8842064
S21400060093F88600002A00F0FC81AF4DB3F89210F4
S21400061040014259160400F1EF81AC4EB3F8904009
S21400062093F8887093F889301640344344F0C052EB
S21400063042F4004242EA874242EA83534351A14AC7
S214000640D3690B43D3610020BDE8F0812A68538844
S214000650002B97D1D188022994D11378180691D50A
S21400066003F01F03012B00F0BA82022B00F08B82EE
S214000670002B87D19388002B84D195F82020043A4C
S214000680012A3FF67FAF924C6A7F238002B1218019
S2140006902B6BDB68002B00F0A683984718B12388E5
S2140006A043F0010323800020034689490222BDE867
S2140006B0F041FFF76DBE2A68D388002B7FF462AF47
S2140006C01378C3F30403D8B2002800F0CE810228C2
S2140006D07FF458AF938813F0800FD9B2764B1B681F
S2140006E001F00F0103EB010014BF90F8AC0090F886
S2140006F0BC00002840F0948200297FF443AF3433D6
S214000700997800293FF43EAF508800287FF43AAF2E
S21400071095F82020052A7FF435AF1A784901002A7B
S21400072000F07083684A8B581E0340F1858323F0DF
S214000730705323F4001343F080538B5040B2BDE84F
S214000740F0812B68DA88002A7FF41CAF187810F046
S2140007501F003FF40DAF02287FF414AF998811F004
S214000760800FCAB25449096802F00F0201EB02007A
S21400077014BF90F8AC0090F8BC00002840F05682F9
S214000780002A7FF4FFAE34318A78002A3FF4FAAEAE
S2140007905B88002B7FF4F6AE95F82030052B7FF4AF
S2140007A0F1AE08785201002800F039834648135805
S2140007B003F44024B4F5802F23F0705300F03E83FA
S2140007C0002BB8BF43F0804343F4001313500020BF
S2140007D0002340B281F82030BDE8F0812C68A38861
S2140007E0002B7FF4CFAEE388002B7FF4CBAE63887C
S2140007F07F2B3FF6C7AE2278D0067FF4C3AE95F8BF
S2140008002020032A00F04781042A7FF4BBAE002B89
S21400081000F02A822B490A68DBB222F4FE6242EA22
S21400082003130B600020BDE8F0812868037803F00E
S2140008309F03802B7FF4A6AE43881A0A022ADBB2F7
S21400084000F09B81032A00F08F81012A7FF49AAE84
S214000850002B7FF497AE696A0B78002B3FF492AEBC
S214000860C28800209A4228BF1A46BDE8F0410346D7
S214000870FFF78EBD2B689A88002A7FF483AEDA884D
S214000880012A7FF47FAE588800287FF47BAE1B7861
S21400089003F09F03802B7FF475AE95F82030042B71
S2140008A000F09F80052B7FF46DAE05F11C0103461A
S2140008B0BDE8F041FFF76CBD00000020000B1040C3
S2140008C000F8D3C3000810400009104000F813C019
S2140008D0EC0B00202B689A88002A7FF453AEDA8847
S2140008E0002A7FF44FAE5A88110A7FF44BAE19786F
S2140008F0C9067FF447AE95F82010042900F0D3808F
S21400090005297FF43FAE22B1A96A497991427FF466
S21400091039AE2A775B88002B00F0EA81C94B1B684A
S21400092093F85C2093F85E50002A40F0C281C64FD0
S214000930B3F86A206D011004EC59220400F19D8181
S214000940C24EB3F8681093F860E02640314341F099
S214000950C05242F4004242EA8E42EA51BC49CA6999
S2140009600243CA6193F8842093F88640002A00F078
S2140009708981B84EB3F892006401A1590D0400F1C4
S2140009802382B54DB3F8902093F888E093F88970E9
S2140009900D402A4342F0C05343F4004343EA8E43DB
S2140009A043EA8753A351AA4AD3690343D3614AE66D
S2140009B02B68EA7F99889142BFF4E4ADDA88012A71
S2140009C07FF4E0AD5A88002A7FF4DCAD1B7803F094
S2140009D09F03812B7FF4D6AD95F82030052B7FF44E
S2140009E0D1AD9E4C00252570214628462B46012277
S2140009F0BDE8F041FFF7CCBC22F0705343F08053C3
S214000A001CE6914DB3F892104001090442591404B3
S214000A10F2D48E4EB3F8904093F88870164046EAAB
S214000A20040343F0C05343F4004343EA874305E618
S214000A3093F85E20874FB3F86A505201D6593104B6
S214000A4000F1E9808448B3F8684093F860E093F8D2
S214000A5061103040044344F0C05040F4004040EA87
S214000A608E4040EA8151D151C4E5918800297FF437
S214000A7089AD5288012A7FF485AD95F82020043A86
S214000A80012A3FF67FADAA6AD27994067FF57AAD41
S214000A906B77BDE8F081002B3FF4BCAE0420FFF777
S214000AA061FC6388B6E6A96A1AB1487990427FF479
S214000AB069AD2A775A884B799A427FF4C4AD614B68
S214000AC01B6893F85C2093F85E50002183F87C1036
S214000AD0002A40F060815C4FB3F86A406D01240440
S214000AE0E859020400F15281584EB3F8681093F8A2
S214000AF060E00640314341F0C05242F4004242EA10
S214000B008E42EA515249CA691443CC6193F8842054
S214000B1093F88640002183F8A410002A00F01F8175
S214000B204C4EB3F892006401A1590D0400F15181B6
S214000B30494DB3F8902093F888E093F889700D40FB
S214000B402A4342F0C05343F4004343EA8E4343EA49
S214000B508753A3513E4AD3691843D0610520FFF757
S214000B6001FC0020BDE8F081AA7F9342BFF60AADE3
S214000B70EA6A52F823100B786FE6002B7FF402AD7A
S214000B80A96A4B8869E6938813F0800FDAB22D4B7A
S214000B901B6802F00F0203EB020114BF91F8AC10C1
S214000BA091F8BC10002947D1002A7FF4EBAC34330F
S214000BB095F82020042A5CD0052A7FF4E3AC1A7846
S214000BC09B785B01002A00F08D80224A9B581A030E
S214000BD07FF5D8AC214AC3F34053138063E595F8FC
S214000BE02030042B3CD0052B7FF4CCAC9288EB7FD6
S214000BF09A42BFF4C7AC194C0025214628462B461E
S214000C0025800222BDE8F041FFF7C2BB24F07052F7
S214000C1042F08052EDE426F0705141F0805122E718
S214000C2000EB800003EBC003343369E500EB800083
S214000C3001EBC0013431A7E501EB810103EBC103F1
S214000C403433B5E700000020000B104000F8D3C393
S214000C50000810400009104000F813C0EC0B0020FC
S214000C609388002BC7D08DE40320FFF77BFB6388B7
S214000C70D0E59A78002AA2D084E424F0705242F09C
S214000C8080526AE66E4EB3F8920064010004A259E0
S214000C9011045FD46B4DB3F8901093F8883015406C
S214000CA045EA010242F0C05242F4004242EA83435F
S214000CB078E6654FB3F86A006D01EC592604DCD47B
S214000CC0624EB3F8681093F860C093F861E026406F
S214000CD0314341F0C05242F4004242EA8C4242EABA
S214000CE08E523AE6564A9B581F037FF54BAC71E787
S214000CF00420FFF737FB564B1B6893F87C0078B947
S214000D0093F85C4093F85E20B3F86A10002C74D019
S214000D1052014D4C10514F48C26922EA0101C1618F
S214000D2093F8A40078B993F8862093F88410B3F863
S214000D309230520100295CD0434950504549CA6957
S214000D4022EA0303CB616FF0080001F00FF90020E0
S214000D50BDE8F08122F0705343F0805322E6384E0F
S214000D60B3F8920064010004A259110436D4354D3C
S214000D70B3F8901093F88870154045EA010343F0E5
S214000D80C05343F4004343EA8743E2E620F0705240
S214000D9042F08052B5E62C4FB3F86A406D01E85930
S214000DA00604F3D4294EB3F8681093F860C093F89D
S214000DB061E00640314341F0C05242F4004242EA4C
S214000DC08C4242EA8E529CE621F0705343F08053E8
S214000DD0E8E521F0705343F08053BAE622F07053F2
S214000DE043F08053B5E6AB6ADB7959067FF55BAC1A
S214000DF055E413481B041150A0E75201104809049B
S214000E00145088E70E480B581D0315D523F0705371
S214000E1023F4001343F080530B5010468EE4084C26
S214000E20135903F44025B5F5802F23F0705305D0F1
S214000E3043F400131351CBE4FF207FE4FF20C7E404
S214000E40000B104000F8D3C30009104000F813C090
S214000E50000000200008104090F8543070B504469A
S214000E60042B09D8DFE803F0937729090900A26D5F
S214000E702A60022B40F09D8070BDB84B1B7873B182
S214000E80B749031DC1F81433D1F80033D0F8CC00AD
S214000E9023F03C4240F000431343C1F80033B14B0B
S214000EA01B6823B1B04A0020116802469847002309
S214000EB084F8543084F8343070BD456C002D40F012
S214000EC0BE80A84E3368002B00F087802846A16CB1
S214000ED02A469847356000287FD094F83630A34AD3
S214000EE05B0111469A58012084F8340002F4402031
S214000EF0B0F5802F19440AD032F0705248BF42F045
S214000F00804242F400120A6094F836305B01984939
S214000F105A5802F44020B0F5802F22F0705218BFC5
S214000F2042F400124FF0000584F8345018BF5A50AF
S214000F308B49231DC1F81433D1F80033D4F8CC0004
S214000F4023F03C4240F0004313430022C1F8003334
S214000F5084F8542070BD406C002840F0898094F8D6
S214000F603530012B00F0EC8013B97F4BA26C1A6071
S214000F70002001460246034684F85400FFF720F995
S214000F80764A01210423117084F8543070BD002382
S214000F90724A744D436480F8353013702B60FFF747
S214000FA0C5FA013074D094F854305A1E012A7FF6E0
S214000FB05EAF636C63B32268D2889342BFF45CAFC3
S214000FC0B4F84010B3FBF1F201FB1233002B7FF4B0
S214000FD053AF012384F8353070BD6149231DC1F835
S214000FE01433D1F80033D4F8CC0023F03C4240F060
S214000FF0004313430020C1F8003384F8540003462E
S21400100001460246FFF7C4F9032384F8543070BD46
S2140010105348554E221DC0F81423D0F80023D4F8A8
S214001020CC5022F03C4145F000420A43C0F8002371
S21400103094F83500336000287FF439AFDFE790F886
S2140010403420B0F840304B49002A58D10968444A49
S214001050D1F8CC1043F40025C2F81053D2F8003370
S21400106041F0044123F03C430B43C2F8003370BD0B
S21400107094F83420B4F840303E49002A54D1096828
S214001080374AD1F8CC1043F40020C2F81003E5E745
S21400109094F83620354950010125435884F83450D9
S2140010A003F44025B5F5802F09D033F0705348BFC0
S2140010B043F0804343F40013435094F836202C4901
S2140010C052010020535884F8340003F44020B0F551
S2140010D0802F23F070531CBF43F400135350204A54
S2140010E0231DC2F81433D4F8CC10D2F8003341F0E4
S2140010F0004123F03C430B43C2F8003370BD9D42D1
S2140011000968174AD1F8CC1028BF1D4645F40025BB
S214001110C2F81051D2F8003141F0044123F03C43AC
S2140011200B43C2F8003170BD984209680C4AD1F8EA
S214001130CC1028BF184640F40020C2F81001E9E79A
S214001140094BA26C1A6084F8540003460146024616
S214001150FFF71EF9022384F8353070BDF00B00202F
S21400116000081040F40B0020F80B00200009104087
S214001170000B104000000020194B1B6810F0800F79
S21400118000F00F0003EB000214BF92F8AC2092F8B8
S214001190BC2052B930B9343393F82020013A012AE2
S2140011A00DD9704792F82030FFDE02EB820203EB87
S2140011B0C203343393F82020013A012AF1D810B440
S2140011C05C6A002083F8200034B1586259691A69B5
S2140011D023465DF8044B18475DF8044BE1E700BF73
S2140011E000000020264B2748274A5968F0B41D689F
S2140011F0264C274B056011601868236890F85E102F
S21400120023F07052DE0354BF42F0805242F0005288
S2140012109D0390F85C3054BF42F0806242F000625A
S2140012204BBB1C4B1C4F1D4D49011E460B448A519F
S2140012303A681A612A685A61636890F8861023F043
S2140012407052DC034CBF42F0005242F080529B03C7
S21400125090F884304CBF42F0006242F0806263B186
S2140012600F4B7C68686849011E460B448A511C6116
S2140012705861F0BC70470A4BD4E7064BF1E700BF55
S214001280240C00200401104008011040FC0B002034
S21400129000000020000B1040380C00200C0C002032
S2140012A0000910402DE9F04FDFF888A14B4BDFF81E
S2140012B08891DFF88881DFF888C1DFF888E1484F39
S2140012C0484E494A494D4A4C4A484B494FF0010B53
S2140012D08AF800B0D3F818A0C9F800A0D3F8009098
S2140012E0C8F80090D3F80880CCF80080D3F80CC07B
S2140012F0CEF800C0D3F824E0C7F800E09B6A33605D
S21400130013682B6053682360D36903603B4B1069F6
S21400131008601B683A4952693A480A603A4A93F8A4
S2140013205C10D0F80002106093F85E20002952D1BD
S214001330364D3749374C384852012E461544975992
S2140013402E696A690A6093F884202760066093F81D
S2140013508630002A3DD0314A314F5B0115461A448B
S2140013605E59156953694B602E4B666045602E4D7D
S2140013701A681D482A60D3F804E00168C5F804E03E
S21400138021F07C4141F0805101600168134E274AEC
S214001390274C41F008010160B761D3F8FC1C41F00E
S2140013A00401C3F8FC1CD3F8FC1C41F00801C3F888
S2140013B0FC1CD3F8FC1C41F00101C3F8FC1CD36AEA
S2140013C0236040235362D36ADB03FCD50120BDE8CB
S2140013D0F08F0E4AC0E7114DABE700BF000010408B
S2140013E0080C0020040C002000081040300C0020E0
S2140013F04C0C0020180C0020480C00200000002098
S214001400340C0020000C1040500C0020000B104044
S2140014100C0C0020FC0B0020380C002000091040AB
S2140014200000808004011040240C002000800C4046
S214001430140C0020440C0020200C0020400C00203F
S2140014401C0C00202C0C00202C4B70B50022112008
S21400145004211A7002F05EFD294B1B68DB0702D4DC
S214001460284B02221A62284B2848D3F80012284A32
S21400147021F00101C3F80012D3F8001221F00C018C
S214001480C3F8001243691A40002A2FD0214B1E6869
S214001490214B1E4D1A68214B214CEA601B682360C5
S2140014A0FFF7A0FE1F4B184A19681F4BC2F8001220
S2140014B01A681E4B62611A681D4B22611A681D4B22
S2140014C0E26166601A681C4BAA621A681B4B6A6265
S2140014D01A681B4BAA601A681A4B2A601B68AB6115
S2140014E0636843F400636360012070BD094A0C4BD7
S2140014F0166846F001025A605E60C9E7440C002098
S214001500140C002000800C40000C1040000010401E
S214001510000080804C0C00202C0C0020300C00209A
S21400152000081040500C0020340C0020480C00200E
S214001530180C0020040C0020080C00201C0C0020B6
S214001540400C0020200C00202DE9F04F994D83B070
S21400155002F0B2FE2B7801904BB1974BDA6A500737
S21400156056D5954A20235362D36A1904FCD5934B6B
S2140015709A6812B11A68920321D4914B5A699C69F1
S214001580144016D0210200F10882002CC0F22182FD
S214001590230500F1E681270700F1D381A60400F1B8
S2140015A0A281E00400F12281610300F1AE802103F4
S2140015B034D4019803B0BDE8F04F02F081BE9A68BB
S2140015C0D7070BD501221A615B68DE0706D52B7894
S2140015D0002B40F054820220FEF7C4FE774B9A6838
S2140015E09407CAD502221A615B68D807C5D42B783F
S2140015F003F0FF0223B9724B4FF0FF319A61596135
S2140016002B78002B00F047820020FEF7ABFEB4E7F5
S2140016106C4A126802F014021A62A2E7FEF7C8FDCE
S214001620062800F02582684A684F9369D269DFF879
S214001630AC91DFF8ACA1DFF8ACB102EA03084FEAE0
S21400164018480025012415E025BB00F134039978DD
S2140016505E4A49010A449268DAF800601640F207CA
S2140016603DD4330718D401356400072DA4B207F122
S21400167020079ED014EA080FF5D0D9F800004319C9
S21400168093F8BC30002BDFD003EB830300EBC303DF
S2140016903433DCE79B78FFDE4D4B1B6813F04003CA
S2140016A040F0AA81DBF80020D9F80000C2F34172AE
S2140016B0032A18BFC2F1020300EBC303043303601E
S2140016C0DBF8003043F0C043CBF80030414B021D3E
S2140016D01A60082243F80C2CFFF7BEFBC3E7012272
S2140016E0BA609978002940F091811A69B3F80CC065
S2140016F0624540F2AF81CCEB020E5A6962445A61F1
S214001700C3F810E0FFF7A8FBABE7FEF751FD06288D
S21400171000F0A7812C4ADFF8C0909369D269DFF801
S214001720BC80DFF8C4B002EA030A01261FFA8AFA70
S2140017303546002729E0002AACD100F1340393F89F
S21400174002E02549DBF800C04FEA4E1E71448A6865
S2140017500CEA0202D20710D50122C9F80820002F91
S21400176000F0F681D9F810101A69D878C1F3120182
S214001770521A5A611961FFF7FFFC6D00072EADB2D1
S21400178015D00137013609F1200915EA0A0FF4D001
S214001790D8F8000007F00F02831893F8AC30002B3F
S2140017A0C9D003EB830300EBC3033433C7E724F449
S2140017B08024FCE6440C002000800C4000400C40D6
S2140017C000001040140C002000081040000B1040D1
S2140017D0080B1040140B10400009104000000020B9
S2140017E014081040100B104010081040AD49AE48C9
S2140017F04B68AE4A23F4F06323F0010320254B60C8
S21400180005611368A84913F02003FAD1DFF8C8E28F
S214001810DFF8C892DFF8C882DFF8C8C2DFF8C8B2BF
S214001820DFF8C8A2A24FA34EA34DA4484FF0FF3244
S214001830CBF80820AEF5D07ECAF80820C9F80820F4
S214001840C8F80820CCF80820CEF8A821BA60B26004
S2140018504FF00117AA600926012582608262C9F846
S2140018604822C8F84822CCF84822CEF81C70CEF899
S2140018701460CEF81050924DDEF800002D68914EA0
S2140018802F6BDFF844C220F4FE60CEF800004FF065
S214001890C048281D85F83430CEF810832860CEF86E
S2140018A01403DEF80003D5F8CC90D7F810803F6814
S2140018B020F03C4549F004402843B8F1000F0CBF27
S2140018C035466546CEF800038B614A618D6107B1E7
S2140018D0B8470320FEF746FD6FF00A0000F046FB0F
S2140018E024F4805460E62B78002B40F09F806D49EE
S2140018F0734B4A681E68734D306BD6F8CCC0D0F870
S21400190010E0714F684822F4F06242F480724A6038
S214001910D1F800334CF0044223F03C431343BEF1AD
S214001920000F0CBF2A463A4600254FF0FF37C1F895
S214001930003324F4005486F8545085614761826170
S2140019402FE65F4B584A1B681B6B1B6908215161C9
S21400195023B1D2F80808C0F30D20984724F00804F5
S2140019601CE6514B4FF400625A616FF0090000F01C
S214001970FDFAFEF71DFC002868D0FEF719FC0238B9
S214001980C0B2032806D82B78002B00F087800620EC
S214001990FEF7E8FC24F40064FDE52A7812B94FF45B
S2140019A000025A612B78002B43D1484B5B68DA075C
S2140019B002D42B78002B51D0444B586810F001000D
S2140019C018BF032024F40004FEF7CCFC002CBFF65E
S2140019D0DFAD2B781BB9344B4FF000425A612B78A1
S2140019E0002B40F08580364B1A6892F82100FEF7EF
S2140019F0B9FC24F00044CBE5354AD9F80000402372
S214001A001360344B1B68083B036059E629489A6903
S214001A104901084419690069C0F31200121A891AAC
S214001A205A611961D878FFF7A7FB1AE6FFF70CFD95
S214001A305DE7FFF709FD0028B7D01B4B4FF4000207
S214001A405A61224B5B68DA07B6D4B2E70220FEF78B
S214001A5089FC92E78E4659690A4450E6FFF722FC55
S214001A60AAE7174B1B6893F82100FEF77BFC51E6AC
S214001A70134B1B6893F82100FEF774FCD3E5FFF7C1
S214001A80E3FC00283FF4A7AD074B00214FF4C052FB
S214001A9099619A619FE5FFF705FCB5E5FFF702FC43
S214001AA075E700BF0008104000001040100010400E
S214001AB0C0091040000B1040200B1040400B104097
S214001AC00000002000380C8008380C8000400C40D5
S214001AD0080B1040140B1040A0091040400910409D
S214001AE0600910408009104000091040200910408D
S214001AF0FFF7AAFC00283FF476AF1E4A1E4912687C
S214001B001E4B4FF0004048610026111D4FF0C040AC
S214001B1082F83460C3F810031160C3F81413D3F8C6
S214001B200003D2F8CC1020F03C4041F004410843BA
S214001B30C3F80003586820F4F06040F480705860E2
S214001B40D3F8000320F03C400143C3F800134CE7F1
S214001B501969B3F80CE05A69714593BF5218CEEB79
S214001B600101724439465A6119616D00FFF774F934
S214001B70ADB206E60000002000001040000810404D
S214001B802DE9F047B94B1B6893F87C20002A00F03B
S214001B90288193F85C2093F85E10002A00F03C81C0
S214001BA0B34AB3F86AE049010A44916841F0420139
S214001BB0916093F8A420002A00F0BB8193F884205B
S214001BC093F886104FF0000C002A40F01781A94ABF
S214001BD0B3F8920049010A444CEA000C916841F0BF
S214001BE002019160BEF1000F22D0A3490A6942F0BB
S214001BF042020A61B3F86A201EEA020F09D093F87F
S214001C005E109B4849010A5822F0705242F000626A
S214001C100A50B3F892201EEA020F09D093F88610F5
S214001C20934849010A5822F0705242F000620A5066
S214001C30BCF1000F27D0904990484A6822F4F06221
S214001C4042F480624A60826942F0800282614A6899
S214001C5022F4F06242F400724A604269170608D421
S214001C60143043F6982201E0013A02D001680E06CD
S214001C70FAD582488049826922F0800282614A69E8
S214001C8042F002024A61BEF1000F39D07C4E724625
S214001C9043F698214027B3F86A50754C2A422046EE
S214001CA011D093F85E80D6F800904FEA4818444466
S214001CB0A56809EA05056D0605D5A760B3F86A406C
S214001CC022EA040292B2B3F89240224210D093F86D
S214001CD08650D6F800806D012844846808EA04041B
S214001CE0640606D58760B3F8920022EA000292B234
S214001CF00AB10139CFD160490A6922F040020A616F
S214001D0093F87C20002A40F0FD8093F8A420002A57
S214001D1040F0E0805B4E5A4D6046724643F698218E
S214001D20022793F85C40002C40F0B080B3F86A407D
S214001D30044214D093F85E804E4C4FEA4818444450
S214001D40D4F80890D6F8008009EA080818F0020FC0
S214001D5005D0A760B3F86A4020EA040080B293F882
S214001D608440002C62D1B3F89240044214D093F819
S214001D708680404C4FEA48184444D4F80890D6F879
S214001D80008009EA080818F0020F07D0A760B3F829
S214001D90924020EA040080B202B908B10139C0D1ED
S214001DA0BEF1000F0CD0344934480B69364A23F094
S214001DB002034FF484640B61046113689B06FCD431
S214001DC0BCF1000F00F084802B4A536923F0020315
S214001DD05361536823F4F06343F480635360BDE8B3
S214001DE0F087944693F8A420A2B193F8842093F841
S214001DF086104FF0000E002A3FF4E9AE1C4AB3F8F6
S214001E00920049010A444EEA000E916841F04201F0
S214001E109160E7E696460BE7164AB3F86AC04901B2
S214001E200A44916841F002019160DBE7B3F8924002
S214001E302242B1D093F886900D4CD5F800A04FEA18
S214001E4049194C44D4F808800AEA080818F0020F2A
S214001E50A4D0A760B3F8924093F8848022EA0402E4
S214001E6092B2B8F1000F97D17FE700BF00000020C4
S214001E7000091040000B1040000810400000104001
S214001E80100810401408104010001040B3F86A40C4
S214001E9022423FF464AF93F85E90324CD5F800A02F
S214001EA04FEA49194C44D4F808800AEA080818F0A2
S214001EB0020F3FF454AFA760B3F86A4093F85C8013
S214001EC022EA040292B2B8F1000F7FF448AF2FE77F
S214001ED0BDE8F08793F88420002A37D193F886006F
S214001EE021494001425822F03C4242F00042425012
S214001EF093F886004001425822F0F84242F09042A1
S214001F00425007E793F85C20AAB993F85E0016499A
S214001F104001425822F03C4242F00042425093F8C0
S214001F205E004001425822F0F84242F09042425091
S214001F30EBE6944656E693F85E100A4849010A58BE
S214001F4022F0F84242F090420A50DEE693F88610FD
S214001F50044849010A5822F0F84242F090420A50DA
S214001F60D8E600BF00091040000B10402DE9F04FE6
S214001F7010F10B0F83B0074601D0FFF701FE294D85
S214001F80DFF8AC90DFF8AC8001240026BA46A20049
S214001F9010192B68C000191850310F797FB18F685F
S214001FA00E7167B18E60196A01F0FF11494511D0B4
S214001FB0224403EBC2035046996C5A6CB847022C75
S214001FC006D1194B2022C3F8802103B0BDE8F08F5C
S214001FD00224DCE700F1300B9B4414499BF8060012
S214001FE00090BBF81200019000989BF804E0DFF820
S214001FF048C04FEA401B59448B464101BEF1000FD2
S2140020000BD18C440199CCF800E00804D8F80010F5
S21400201021EA0001C8F80010CAE7CBF80060019872
S214002020F4E700BF0000002000E100E000091040D7
S214002030040005001C081040000B1040002008B5E6
S21400204001460246034602F0D5FE0020024603463D
S214002050012102F0CFFE002002460346022102F0D4
S214002060C9FE002002460346032102F0C3FE0020FC
S21400207002460346042102F0BDFE00200246034647
S214002080052102F0B7FE002002460346062102F0B4
S214002090B1FE002002460346072102F0ABFE0020F8
S2140020A002460346082102F0A5FE0020024603462B
S2140020B0092102F09FFE0020024603460A2102F094
S2140020C099FE002003460B21042202F093FE002016
S2140020D0024603460C2102F08DFE0020024603460F
S2140020E00D2102F087FE0020024603460E2102F074
S2140020F081FE0020024603460F2102F07BFE0021EF
S2140021000A460B46012002F075FE01200022014619
S214002110134602F06FFE002213460120022102F051
S21400212069FE002213460120032102F063FE00220E
S21400213013460120042102F05DFE00221346012012
S214002140052102F057FE002213460120062102F068
S21400215051FE002213460120092102F04BFE002208
S214002160134601200A2102F045FE002213460120F4
S2140021700B2102F03FFE0022134601200C2102F044
S21400218039FE00210A460B46022002F033FE0022EA
S21400219013460220012102F02DFE02200321042214
S2140021A0002302F027FE002213460220082102F038
S2140021B021FE002213460220092102F01BFE002207
S2140021C0134602200A2102F015FE002213460220C2
S2140021D00B2102F00FFE002213460320012102F01D
S2140021E009FE002213460320022102F003FE03200C
S2140021F000220146134602F0FDFD0022134603208E
S214002200042102F0F7FD002213460320052102F008
S214002210F1FD002213460320092102F0EBFD002207
S214002220134603200A2102F0E5FD03200B210422B9
S214002230012302F0DFFD03200C210422012302F01B
S214002240D9FD042002460021012302F0D3FD00221E
S21400225013460420012102F0CDFD0022134604207F
S214002260022102F0C7FD002213460420032102F0DB
S214002270C1FD042000220146134602F0BBFD0022E9
S21400228013460420052102F0B5FD00221346042063
S214002290062102F0AFFD002213460420072102F0BB
S2140022A0A9FD002213460420082102F0A3FD002207
S2140022B013460420092102F09DFD00221346042047
S2140022C00A2102F097FD0022134604200B2102F09B
S2140022D091FD0022134604200C2102F08BFD002203
S2140022E0134604200D2102F085FD0022134604202B
S2140022F00E2102F07FFD0022134604200F2102F07B
S21400230079FD002213460520032102F073FD00220A
S21400231013460520042102F06DFD0520002201462B
S214002320134602F067FD002213460520062102F040
S21400233061FD002213460520072102F05BFD002206
S21400234013460520082102F055FD002213460520FD
S214002350092102F04FFD0022134605200C2102F051
S21400236049FD024B0122C3F82C2108BD0060004045
S214002370F0B587B006AB002443F8044D0E4607467A
S2140023801946304608F0E0FE084A059B158800947A
S214002390013D3846314622460294019502F006F980
S2140023A0034803F0C1F807B0F0BD00BF940E00204C
S2140023B0008008402DE9F04389B003F095FC012128
S2140023C00A46022001F03EFF1120012101F07CFAAE
S2140023D01120042101F09EFD00210A46032001F091
S2140023E031FF5C48012101F037FD01215A4801F018
S2140023F033FD02F0FBFE054602F0DAFE15F48074AB
S21400240057D0564B9A6AD20747D4544B0022C3F88B
S214002410102103AEEB0603D5504B514AC3F80C21EE
S214002420FFF70CFE032008210122002302F0E2FC45
S2140024300220062101220023012402F0DBFC0821F1
S21400244023460A4600940194032002F097FC0621D6
S21400245023460A4600940194022002F08FFC414B6A
S214002460414A186859681F7A02253346C2F88051D7
S214002470156003C30D2231463C481F708DF80E4090
S2140024808DF814208DF80F4003F05AF8214637488F
S21400249003F034F809B0BDE8F08301221A63D3F8DC
S2140024A004210132C3F804215A6B42F001025A6338
S2140024B0ABE701212E4FDFF8C0900A46204601F018
S2140024C0C1FE4FF0010857F8080B0390082303AE2F
S2140024D08DF80E308DF810808DF80C808DF80F80FA
S2140024E03046C9F8004002F033FC0220214602F0D4
S2140024F04FFE0FCFB646C9F80080AEE80F003B6827
S214002500CEF8003003214FF40052202330468DF8D9
S2140025100D10ADF8102005938DF81C408DF81D4069
S2140025208DF80C408DF81E4001F0ECF80B4B11486E
S214002530C3F830805A6B0A4942EA08025A631A689E
S2140025400460C3F80841C3F80041C3F80441C3F867
S21400255010115FE700D2040000430200001008409C
S214002560443322111CD0000000E100E00080084047
S21400257000D000000C000243C0058C43034BD3F888
S2140025801421C3F81C2108F0D7BD00BF006000402E
S21400259008B5064B01221A62586A00B208F0D2FD4E
S2140025A00348BDE8084002F0BFBF00BF002000405F
S2140025B0008008400349044B0120002288611A70FD
S2140025C0704700BF00040140BC10002038B50F4D16
S2140025D0044601210E4801F03FFC2846012101F087
S2140025E03BFC002003464FF4F011012202F0C2FD2E
S2140025F0284601F059FB074A0749B0FBF4F00123CF
S2140026000138D06153604B6038BD00BF00720400D3
S21400261000F2040000080140002000402DE9F041CF
S214002620B2F5806F284E8CB088BF4FF480630746A3
S2140026308846264898BF32804FF001014FF00004CC
S21400264088BF338001F008FC214B089307A88DF85B
S2140026501C4001F03FFF1F4BDFF880E0C3F800E0AE
S214002660012520464FF4002209A95C600B930A92CC
S2140026708DF824408DF8255001F0E4FE032329460A
S214002680204605AA8DF815308DF814508DF8165092
S2140026908DF817408DF8184001F0FEFE20462146C2
S2140026A005AA01F0F9FE32880B4BCDF80480013AFA
S2140026B00092039220463A462146029301F046FED7
S2140026C00CB0BDE8F08100BF940E002000030200AD
S2140026D000240020540C0020242000407123000019
S2140026E02DE9F043814C01254FF40067C4F8A4504F
S2140026F027617F4C95B081460E467E482946904617
S2140027001F4601F0A9FB0FCC6D460FC50FCC0FC5B9
S21400271094E80300083485E803000FCC0AAD0FC523
S2140027200FCC0FC594E803004FF40043B9F1040F33
S21400273085E803000E9300F0B480B9F1030F00F0B3
S214002740BB80B9F1020F00F0C680B9F1010F0CBFD3
S2140027504FF0C0424FF0A0424FF0805302920C93CD
S2140027604FF0402001216A4602F092FB0AAA4FF081
S2140027704020022102F08CFB5E48002101F06CFB39
S2140027805D48012101F068FB00231F228DF8003010
S2140027908DF801308DF805308DF803202EB1802E8F
S2140027A09ABF06F1FF36F6B27F26032400208DF886
S2140027B004608DF8024000F087FF0223802F8DF81A
S2140027C003008DF8013027D0402F5BD0202F60D03B
S2140027D0102F00F08780082F60D0042F5DD0474D63
S2140027E00024694628468DF8004000F0D5FE0123F7
S2140027F04FF480329F422A618DF828408DF8294098
S2140028008DF82B408DF82C408DF82F408DF83040F9
S2140028108DF82A301CD018E0384C0623694620462E
S2140028208DF8003000F0B8FE00234FF4803101220E
S21400283021618DF828308DF829308DF82C308DF8F0
S2140028402F308DF830308DF82A2003238DF82B306A
S2140028500123B8F1100F8DF82E308DF82D3027D0CB
S214002860B8F1080F2FD0B8F1040F30D0B8F1020F2E
S21400287008BF8DF829300AA9204800F0C7FE15B019
S214002880BDE8F08305238DF800301C4C69462046D1
S214002890C8E704238DF80030F7E701238DF80030F1
S2140028A0F3E74FF0E0424FF0405302920C9357E7A5
S2140028B004238DF82930DEE74FF0E0424FF0005356
S2140028C002920C934CE703238DF82930D3E70223BA
S2140028D08DF82930CFE74FF0E0424FF08053029258
S2140028E00C933DE78DF80040CFE700BF0060004046
S2140028F028D000000012050000020500002000405D
S214002900F0B5754B75484FF4006295B0C3F880205B
S214002910012101F0A1FA68460021502209F095FA3B
S214002920042001240225024608210023039504956D
S21400293006940E948DF84C4002F05CFA0420024691
S2140029400921002302F056FA042002460A21002339
S21400295002F050FA042002460B21002302F04AFA45
S214002960042002460C21002302F044FA042002460A
S2140029700D21002302F03EFA042002460E21002319
S21400298002F038FA042002460F21002302F032FA41
S214002990002003460F21042202F02CFA00200146F4
S2140029A00346042202F026FA0020214603460422AB
S2140029B002F020FA002029460346042202F01AFA02
S2140029C0002003460321042202F014FA002004210A
S2140029D003460A4602F00EFA0020034605210422AA
S2140029E002F008FA002003460621042202F002FA4A
S2140029F0042021460246002302F0FCF9284609215D
S214002A000422002302F0F6F928460A2104220023B5
S214002A1002F0F0F9042001460246002302F0EAF92B
S214002A20042002460521002302F0E4F904200246B1
S214002A300621002302F0DEF90420024607210023C7
S214002A4002F0D8F9284608210422002302F0D2F921
S214002A50002120460B46042202F0CCF920462146EF
S214002A600422002302F0C6F90320092104220023D1
S214002A7002F0C0F903200A210422002302F0BAF96A
S214002A80052009210422002302F0B4F905200821BC
S214002A900422002302F0AEF94FF49007002306222A
S214002AA04FF4803E4FF080516846032603958DF81C
S214002AB02E400A9408958DF80030069305930E93E1
S214002AC00C9304920D92CDF840E01197099612915E
S214002AD001F0A8FD15B0F0BD0060004000530200F4
S214002AE0002864D02DE9F041012184B00446304826
S214002AF0304F314E01F0B0F904A900250A2301F841
S214002B00105D38468DF802308DF801508DF8035070
S214002B108DF804508DF805508DF806508DF8075046
S214002B208DF808508DF809508DF80A508DF80B5026
S214002B308DF80C5002F0EAFBFB68204A43F00103D4
S214002B404FF48051FB604FF00108C2F8801111204D
S214002B50116086F8008001F0A7F8B4F57A7F184B6C
S214002B6028BF4FF47A74800A04FB00F4A3FB0434F5
S214002B70A409FC617D62C7F80480337843B1114A2A
S214002B80136923F00403136130BF3378002BF7D1A9
S214002B900A4B08484FF48052C3F8802002F00EFC1F
S214002BA00348002101F058F904B0BDE8F0817047F1
S214002BB00062040000040140BC10002000E100E0B8
S214002BC0D34D621000ED00E0034A136923F00403BE
S214002BD0136130BF704700BF00ED00E0034B0448B0
S214002BE008229A65012101F037B900BF0060004055
S214002BF00092040070B50F4D06460FCD86B06C46A9
S214002C000FC495E80300022384E8030022360A482E
S214002C108DF80B306946049600F08CFC00220648BE
S214002C200A2100F07FFC044A9368DB07FCD506B057
S214002C3070BD00BFE8CF00000010004008B5054892
S214002C4000F06AFC0448002101F006F9034B082254
S214002C50DA6508BD001000400092040000600040E5
S214002C602DE9F0431E4B1F481F4C082287B09A657B
S214002C70012101F0F1F8A1464FF0220800271B4E73
S214002C800FCE6D460FC596E80300022385E80300C5
S214002C901548CDF8108069468DF80B3000F04AFCD8
S214002CA011480A21002200F03DFCA368DA07FCD593
S214002CB0D9F808309B0705D50137FFB20F2F08F16A
S214002CC00108DCD1084800F027FC0648002101F086
S214002CD0C3F8034B08223846DA6507B0BDE8F08330
S214002CE0006000400092040000100040E8CF0000A2
S214002CF0264B70B4D3F80451D3F800419E680022E6
S214002D002B46A4194FF0000545F1000512196B413A
S214002D1018B1940A44EA8354046039B1C2F3090234
S214002D204FF47A7303FB02F2920A0A80174B9A6AF0
S214002D30D20701D470BC704701221A63D3F804216D
S214002D400132C3F804215A6B42F001025A63D3F8E9
S214002D500451D3F800419E6800222B46A4194FF078
S214002D60000545F1000512196B4118B1940A44EAB2
S214002D70835404600029DDD0C2F309024FF47A734D
S214002D8003FB02F2920A0A8070BC704700100840EB
S214002D90F0B58DB00CA8002500F8295D08F0C4F940
S214002DA0284BD3F80471D3F800619C689A6A12F035
S214002DB001022BD110460025A21945F10003801808
S214002DC047EB0301830A43EA81539DF907200CA8C9
S214002DD04FF4616101FB023340F8283D03A908F077
S214002DE065FF03A845C8069B089D079C190441EA91
S214002DF0C62141EA421242EA5002A5F1D00342EA55
S214002E004363601C43EA40500DB0F0BD01221A63D4
S214002E10D3F804210132C3F804215A6B42F00102B0
S214002E205A63D3F80411D3F800019C680B460019C6
S214002E304FF0000141F1000140195941830A43EA6D
S214002E408153C2E700100840042103460A460220C8
S214002E5001F0D0BF10B50421044603460A460220FE
S214002E6001F0C8FF2346022005210422BDE81040D9
S214002E7001F0C0BF034605210220042201F0BABFBC
S214002E8008B50E4B4FF48052C3F8802002F07CFB4E
S214002E90002000F0E1F8431EDBB2012B0BD904281A
S214002EA04FF0000006D0064904F032FEB0FA80F07B
S214002EB0400908BD08BD002008BD00BF00600040F6
S214002EC0600C002008B501460A22034804F038FECC
S214002ED0B0FA80F0400908BD980E002008B50146FB
S214002EE0034805F05FFBB0FA80F0400908BD00BF5C
S214002EF0980E002038B5084D0C460A462B4601466B
S214002F00064805F04BF928B92888001BB0FA80F06F
S214002F10400938BD002038BDBE100020980E0020A5
S214002F2008B5034805F0A6FAB0FA80F0400908BDD7
S214002F30980E00207F2888BF002070477F2807D87B
S214002F40A0F16103192B04D820F0200080B270474E
S214002F5000207047101E1ADD70B40E184FF0604443
S214002F6001E0B14212D0D4F8803E11F8015BDA07D6
S214002F70F7D5D4F8003EDB07F3D523681BB900BFAE
S214002F802368002BFBD0B1422570ECD170BC704793
S214002F9029492A4B4A6C42F400524A64D3F820214D
S214002FA042F00402C3F82021D3F8202122F4407214
S214002FB0C3F82021D3F8B82022F47062C3F8B820F2
S214002FC0D3F8B820102042F48062C3F8B8200A462E
S214002FD00862D36A9B06FCD52DE9F047184C194ABF
S214002FE0E068DFF868E0DFF868A0DFF868C0164F32
S214002FF04FF06043002140F080704FF002094FF020
S2140030000F084FF480760125E060C3F8B0AFC3F830
S214003010001EC3F8801EC2F8F090C2F81080C3F8F5
S214003020401ECEF800C0C3F8807EC2F80463C3F822
S214003030005EBDE8F08700BF00800C4000600040E6
S214003040F0ED00E0000004E00D000100001000E0DC
S21400305055CEACC5FE03004038BBF0B5494D2878C8
S214003060830783B001D503B0F0BD02F02BFB02F05E
S2140030700DFD0A24FF2002F0D3FA611E11F0FF04B2
S214003080F8D12046214602F04BFC012806460ED019
S2140030903D4B00221A8002F0D1FA02F019FB287884
S2140030A040F00100287003B0F0BD012070474FF4D7
S2140030B07A7002F00DFD08204FF4D57102F030FC56
S2140030C0012840D101AF3C4602AEFF2002F0A8FA2C
S2140030D004F8010BB442F8D19DF80630012BD7D185
S2140030E09DF80730AA2BD3D103E0A92002F018FCE4
S2140030F028B102F0F9FC4FF080410028F5D002F02C
S214003100F3FC01460028C3D13A2002F009FC00284F
S214003110BED1FF2002F084FA07F8010BB742F8D1BF
S2140031209DF8043013F0400F14BF0C260426164BEF
S2140031301E8002F083FA2B7823F001032B7002F036
S214003140B5FC28788FE72146A92002F0E9FB012884
S2140031508EBF34460226A92403E0204602F0E0FB98
S21400316020B102F0C1FC01460028F6D002F0BCFCFB
S21400317000288DD110204FF4007102F0D1FB0028FA
S21400318086D1D4E704000020C010002010B9024BFE
S21400319018787047012070470400002030B583B0CF
S2140031A018B10424204603B030BD002BF9D00D46DC
S2140031B01F490978C80701D50324F3E71D49019381
S2140031C00988090758BF5202012B11461DD012204C
S2140031D002F0A6FB019B30B1012402F02FFAE1E7D2
S2140031E014F0FF0318D028464FF40071019302F044
S2140031F0B1FA019B05F500755C1E0028F0D101248C
S21400320000210C2002F08CFBE7E7112002F088FB7F
S214003210019B18B11C46E0E71C46F1E728464FF430
S214003220007102F097FAB0FA80F46409D5E700BF9F
S21400323004000020C010002008B104207047002BB6
S214003240FBD010B50C462B490978C80782B002D5CA
S214003250032002B010BD490701D50220F9E7264930
S2140032600988080758BF5202012B32D011F0060F0A
S21400327026D111461920009302F052FB009B40B164
S2140032800120009002F0DAF90098E2E712F0FF035E
S2140032900AD02046FC21009302F0BCFA009B04F5FD
S2140032A000745A1E0028F1D10020FD21009302F080
S2140032B0B1FA009B0028E3D0181C18BF0120E0E7F5
S2140032C0194697200192009302F02AFB019A009B70
S2140032D0CFE711461820009302F022FB009B08B1AE
S2140032E01846CEE72046FE2102F094FAB0FA80F0A7
S2140032F04009C6E704000020C010002008B10420E2
S2140033007047834B1878C00701D503207047F0B587
S214003310154685B00E2900F2AE80DFE801F0A36EF8
S2140033206944ACACACAC40AC3B34261508008D20F0
S214003330002102F0F5FA002800F0C380012402F014
S2140033407DF9204605B0F0BD3A20002102F0E8FAEB
S2140033500028F3D16C1E0335FF2002F061F904F853
S214003360010FAC42F8D10024E9E70A20002102F060
S214003370D7FA0028E2D12846102102F0EBF9B0FA7D
S21400338080F46409DBE70920002102F0C9FA00286E
S214003390D4D1F0E75F4B1B882B700024CFE70122C7
S2140033A01A700024CBE75B4E318801F0040189B225
S2140033B0002962D08D20002102F0B2FA0028BDD18B
S2140033C0FF2002F02DF96846102102F0C3F900280C
S2140033D0B4D03024FF2002F023F9601E10F0FF0462
S2140033E0F8D19DF80A201023120993402B60A6E717
S2140033F04FF400732B800024A1E70920002102F07F
S2140034008FFA0446002899D16846102102F0A2F9E6
S214003410002893D09DF800309B09012B5CD09DF8C6
S21400342005309DF80A709DF809009DF807209DF864
S21400343008609DF8061003F00F0303EBD713023362
S21400344000F00300920003EB400302EB961201F03B
S2140034500301DBB202EB8122093B013202FA03F3DD
S2140034602B606CE702F0FCF800283FF467AF02F030
S214003470E5F8002463E7042461E7092002F050FA27
S214003480044600287FF45AAF6846102102F062F91D
S21400349000283FF453AF308800F0020080B228B313
S2140034A09DF80A109DF80B309DF80D2001F03F01A5
S2140034B0DB0903EB410392090133013A93402B6089
S2140034C03DE7FF2002F0ACF82846402102F0A2F9C2
S2140034D0B0FA80F4640932E79DF809309DF80820B8
S2140034E003EB022301339B022B6028E79DF80B3089
S2140034F09DF80A2003F003015B0903EBC1030133C7
S214003500C2F3840202FB033304462B6017E700BFB6
S21400351004000020C0100020036823F001030360AD
S214003520704700BF436823F0F7031A4342EA0111CD
S214003530416070472DE9F04F00F104777F014C7A27
S21400354091F808B091F80AA00D7891F80C9091F8CF
S214003550018091F80DC091F814E000233B604A68A2
S214003560CB7A0E69240444EA4B4141EA026141EAFF
S2140035700A2242EA0312ED0742EA890345EA8878FE
S214003580360243EA080346EA0C4603604660C7F87C
S21400359000E0BDE8F08F00BFF8B50D7904460F4691
S2140035A0174825BB00F080FB164B174A0344A2FBC6
S2140035B00323DB0D1DBF03F1FF331B0203F4FE469E
S2140035C01E460A2363607878FA783978BD787F7962
S2140035D00001120440EA016102F4FE02294341EAB6
S2140035E0020333430FB143F008032360F8BD00F035
S2140035F05BFB034800F058FB2B0203F4FE46E0E7B3
S214003600408104003F5DC600A5E830A52A4B022293
S21400361042609842F0B4426B8D781FD00C784A789E
S2140036200B79CF788E79240744EA025242EA0322C5
S21400363042EA07130EB143F08073CA790AB143F029
S21400364004034A790AB143F002030A7A0AB143F046
S214003650010343EA0543C360F0BC7047062D28D833
S214003660DFE805F01019232527270400134B1B68F5
S21400367003F07F0322F4FE4222F07F020E4C1A4330
S2140036806263CBE70E4C2368266803F4FE4406F01C
S2140036907F032343EEE70A4B1C681B68C4F30664EB
S2140036A0C3F3064343EA0423E4E7064CEBE7054B83
S2140036B0F2E70023DEE700BF00200040BC81E00FF9
S2140036C0B481E00FB881E00F08B520B10A4B9842EC
S2140036D007D91F2008BD094800F0E6FA0028F5D1F2
S2140036E008BD074B00F5742000F23F20A3FB003016
S2140036F0800C0138C0B208BD0048E80140810400D3
S21400370083DE1B43F0B506788368B3FA83F3C3F110
S2140037101F0416B1184B01221A6018498B6BDA0782
S21400372006D40B6813F4405F02D0CA6BD307FCD4F0
S214003730124D837C6B604178D0F80CC08788437C40
S214003740827890F810E041F0080147EA4C100143F7
S21400375041EA820242EA031242EA8E3343EA042333
S2140037604FF0FF322A632B602EB10549024A2B68C0
S21400377000230B601360F0BD0007024300100840F2
S2140037800C00024308B500F00F03013B062B65D87A
S214003790DFE803F02539476464550400464BDB6ACE
S2140037A003F46033B3F5803F23D0B3F5003F6DD00C
S2140037B0B3F5004F4AD0414B984262D0404B9842F6
S2140037C009D13D4B9B6AC3F38103022B17D0032B11
S2140037D062D0012B48D1BDE8084002F08FBA364BC4
S2140037E0DB6A03F47053B3F5805F4FD0B3F5005F28
S2140037F02CD1324B984244D0314B9842E1D0BDE8B0
S214003800084002F083BA2C4A936A03F00303022BA3
S214003810EFD0032B1AD0012B38D0936ADA0315D4D5
S214003820C9E7254A936A03F00C03082BE1D00C2B5A
S2140038300CD0042B2AD0936ADB0207D4BBE71E4BBE
S2140038401B6813F0805301D0002BB4D01B4B98425A
S21400385017D01B4B9842B4D0002008BD174B984297
S2140038600FD0174B9842ACD0144B98421BD0144B39
S2140038709842F1D1104B9B6A142033FA00F016D10F
S21400388008BD0D4B9B6A03F003039EE70B4B984263
S214003890F7D00B4B984294D002F046F9094B1B68C0
S2140038A00133D84008BD044B10209B6AE5E7BDE80D
S2140038B0084002F027BA00BF00800C4002001A0041
S2140038C003001C007800904338B5C0F30313013B97
S2140038D00C46062B12D8DFE803F01C11115D6804B5
S2140038E01200A64B984200F0388103F5AF139842B9
S2140038F000F01D81A24B984200F0028138BDA14B1A
S214003900984200F0D58003F50433984200F0B98061
S21400391038BD02F077F99C4B41F67132DD6BDA6305
S2140039205B6803F00703042B06D8012202FA03F3B0
S21400393013F0130F40F0DF80944B984240F29980CA
S214003940052291494B6823F0070313434B600DB1E2
S2140039500023CB638E4A1368013C23F4E03343EA2A
S2140039608434146002F0E0F8874B41F67132DC6B69
S214003970DA635B6803F00703042B57D8012202FAC8
S21400398003F313F0130F51D0804B984240F2A680F9
S21400399004224FE07E4AB1FA81F49368C4F11F0412
S2140039A023F00F031C43946038BD02F02BF9764BCE
S2140039B041F67132DD6BDA635B6803F00703042BB4
S2140039C006D8012202FA03F313F0130F40F08E809C
S2140039D06E4B984245D905226B494B6823F0070386
S2140039E013434B600DB10023CB6302F00FF9694B14
S2140039F0B0FBF4F0984231D9674B0121984294BF4E
S214003A004FF480704FF40070644B614A196053683D
S214003A10B4FA84F423F48073184350605368C4F1F6
S214003A201F0423F00F031C4354609BE7574B984238
S214003A300CD9052254494B6823F0070313434B6007
S214003A40002C3FF45BAF0023CB6338BD544B554A84
S214003A50034493428CBF02220322EBE70020014678
S214003A60D2E74F4B4F4A034493428CBF02220322B5
S214003A70B2E74B4B4B4A034493428CBF02220322CD
S214003A805FE7434A536DD9070BD5B4FA84F4404A2E
S214003A90136FC4F11F0423F0300343EA04131367C3
S214003AA038BD136D5B06F0D5136D5B06F9D4ECE7F5
S214003AB0374A536DDD070AD5B4FA84F4344A136FD7
S214003AC0C4F11F0423F003032343136738BD136DAB
S214003AD05806F1D5136D5806F9D4EDE7304B314A48
S214003AE0034493428CBF00220122A3E7274B98424F
S214003AF061D9042270E7254B984264D9042220E756
S214003B00234A536DD9070BD5B4FA84F4204A936E32
S214003B10C4F11F0423F0F00343EA0413936638BD90
S214003B20136D5B07F0D5136D5B07F9D4ECE7184A05
S214003B30536DD9070AD5B4FA84F4154A936EC4F1C6
S214003B401F0423F003032343936638BD136D5B07FE
S214003B50F1D5136D5B07F9D4EDE70D4A536DDD071C
S214003B6022D5B4FA84F40A4A936EC4F11F0423F4EF
S214003B70706343EA0423936638BD00BF60261400D2
S214003B80601610007007160000000C400048E801A0
S214003B9000800C4000366E01006CDC02780090431A
S214003BA0FFDB0BFFFF23F400136D5807D9D5136D09
S214003BB05807F9D4D5E7084B084A034493428CBF0C
S214003BC00022012208E7044B044A034493428CBFB8
S214003BD000220122B5E600BFFFDB0BFFFF23F40047
S214003BE000F00F000138062852D8DFE800F0142451
S214003BF03551514604002B4BDB6A03F46033B3F5B2
S214003C00803F49D0B3F5003F44D0B3F5004F0CBF1A
S214003C10092001207047234BDB6A03F47053B3F589
S214003C20805F37D0B3F5005F36D0B3F5006F0CBFBA
S214003C300420052070471B4B986A00F003000228FA
S214003C4029D003282AD0012824D09B6A13F4803F69
S214003C500CBF01200A207047124A936A03F00C0337
S214003C60082B19D00C2B19D0042B13D0936A13F4FD
S214003C70801F0CBF01200A2070470A4B1B6813F0F8
S214003C8080530DD0B3F1805F0CBF09200120704730
S214003C9000207047032070470220704706207047B8
S214003CA00720704700800C4000F47810B0F5A01F85
S214003CB008B500F093800ED9B0F5D01F66D056D95F
S214003CC0B0F5081F38D0B0F5281F76D0B0F5E01F45
S214003CD03FD0002008BDB0F5802F77D03ED9B0F594
S214003CE0602F10D0B0F5801F5ED0B0F5402FF0D119
S214003CF04B48FFF775FF072805D00928E9D1BDE82E
S214003D00084001F083BF474B5B6903F4E063B3F5FB
S214003D10007F7BD06BD9B3F5C06F75D0B3F5E06F7D
S214003D2070D0B3F5407FD4D13F4BDB6CB3F1985FD6
S214003D302CBF3E483E4808BD3E48FFF751FF0328CB
S214003D405CD00928DBD00228C3D1BDE8084001F0CA
S214003D50DDBF3948BDE80840FFF714BD0028CED0C7
S214003D60B0F5003FB5D1BDE8084001F0DDBEB0F5C6
S214003D70B01F10D0B0F5C01FABD12F48FFF702FD23
S214003D80284B1B6FC3F30113D84008BD2B48BDE872
S214003D900840FFF7F7BC2848FFF7F4FC214B1B6FE1
S214003DA003F00303D84008BD2448FFF7EBFC1D4B87
S214003DB09B6EC3F30313D84008BD2048FFF7E2FC10
S214003DC0184B9B6E03F00303D84008BD01F01EFF9E
S214003DD0144B9B6803F00F03D84008BD1748FFF745
S214003DE0D1FC104B9B6EC3F30323D84008BDABB188
S214003DF0B3F5807F7FF46DAF114808BDBDE808407D
S214003E0001F07CBF0F4808BD0F4808BD064BDB6CB1
S214003E10B3F1985F2CBF0D480D4808BD0D4808BD8E
S214003E2006000C0000800C40B081E00F804F1200AE
S214003E3040420F000723220003001C0002001A0065
S214003E40C0D8A700406F4001003FAB0140B56400FA
S214003E50C0CF6A00809FD50030B5C0F30323013B76
S214003E6083B00446092B0CD8DFE803F0191E200B9C
S214003E700B0D1B0B0B051C4DC4F304342C44A40083
S214003E80216003B030BD194D0120194A536DDB0780
S214003E90C4F30434F2D4136D1842FCD1EEE7154D8A
S214003EA0EAE7154D1020F0E7144DE5E714480191B8
S214003EB0FFF7FAFE134B0199984211D9124B0125D0
S214003EC0984294BF4FF480704FF400700F4B084A2E
S214003ED01D6053680E4D23F4807318435060CBE783
S214003EE000200546F2E700BFC003E410C002E4105D
S214003EF000800C404000E4100003E4102002E410B0
S214003F000043020000366E01006CDC02780090432D
S214003F100002E41038B500F00F04631E062B0ED81E
S214003F20DFE803F02E14140D0D0E0400032900F034
S214003F309880092900F0CB80022900F0A08038BDC7
S214003F40072926D0092900F0A98038BD013909299A
S214003F50F5D801A353F821F0434100005F4100006B
S214003F60AF4100003F3F00003F3F000077410000A8
S214003F703F3F00003F3F00003F3F0000C5410000BC
S214003F8002390329DBD8DFE811F0C2000A00A900D5
S214003F90C7009E4A136823F08053136038BD9C4ABE
S214003FA00324402399490B621368002BFCD001F0D0
S214003FB029FE984B41F67132DD6BDA635B6803F0DD
S214003FC00703042B06D8012202FA03F313F0130F9B
S214003FD040F0AD80904B984269D905228D494B68D8
S214003FE023F0070313434B600DB10023CB63874BCD
S214003FF08A485C62FFF758FE894B984254D9894B31
S2140040000121984294BF4FF480704FF40070864BA5
S2140040107E4A1960536823F480731843506001F099
S21400402083FD7C4B41F67132DC6BDA635B6803F030
S2140040300703042B05D8012202FA03F313F0130F2B
S2140040407AD1754B98423AD9052272494B6823F0CB
S214004050070313434B60002C3FF471AF0023CB6380
S21400406038BD6A4B6A4A402119621368002BFCD09F
S214004070664A60235362D36A9903FCD538BD634B06
S2140040806A4A4FF4807119621368002BFCD05F4AAD
S21400409040235362D36AD803FCD538BD5B4A136805
S2140040A043F08053136038BD00200146AFE7604BF5
S2140040B0604A034493428CBF022203228EE75C4B85
S2140040C05C4A034493428CBF02220322BDE74F4A58
S2140040D020235362D36A1B04FCD538BD524B4B4C8D
S2140040E001221A60636843F48073636001F0F6FD92
S2140040F0494B514A9842236896BF23F0600343F029
S214004100600343F020032360022404234AE7474A5F
S21400411004244FF4807345E7434B3C49474A012447
S2140041201C604B6843F480734B6023463AE73A4B77
S214004130984257D9042251E7374B98425AD904225D
S21400414083E7002002460146022C41D02F498A6AA6
S21400415022F4801323F00C0303438B6238BD2B4BF1
S214004160324A4FF4807119621368002BFCD0082085
S21400417000220221E8E701F0D7FC294B984241D9FA
S214004180284B0125984294BF4FF480724FF400727A
S214004190254B1E491D604B68294D23F4807313433D
S2140041A001224B600C202A6003210022CCE7174B2B
S2140041B0174A402119621368002BFCD00420002205
S2140041C00121C1E74FF480104FF480320021BBE795
S2140041D00E48836A23F480330A4323F00303134311
S2140041E0836238BD124B134A034493428CBF0022AD
S2140041F00122F3E60E4B0F4A034493428CBF002283
S214004200012222E700221546C2E700BF00800C40CC
S2140042109C05904300000C400048E8010043020063
S21400422000366E01006CDC0278009043A4059043D3
S214004230FFDB0BFFFF23F4008C05904384059043BF
S2140042401008904310B4042806D8DFE800F0231BBB
S21400425017081F00124A13625DF8044B7047114896
S214004260022301240029F5D00D4B1C62002AF3D04E
S2140042700368002BFCD05DF8044B70470A480823FF
S2140042800424EFE7094880234024EBE7084820236E
S2140042901024E7E707484FF400734FF48074E1E713
S2140042A000800C40840590438C0590439C05904309
S2140042B094059043A4059043EFF3108072B67047C0
S2140042C000B962B6704700BF1D4A1E4B41F20C0192
S2140042D01B6851582DE9F0471646926B1A4F0B4053
S2140042E003EA020423EA02084FF00209FCB10025A3
S2140042F04FF0010AE3070AFA05F214D5B3683A60EC
S21400430003EB05132846DB686BB1197AD3F800C0B7
S21400431081F00102003118BF01211A72BCF1000FB2
S21400432001D05A68E047640805F10105E2D1B9F109
S214004330010F03D04FF001094446D7E7BDE8F087E8
S21400434000200C4000300C4008300C402DE9F047AF
S2140043503B4C089DA768D4F80CC00601374409AC4E
S214004360D7F80C9094E8104106EB0C07B9F1000F53
S21400437003D04FF0000A89F808A0B8F1000F0BD060
S214004380D7F80890C9F38169B9F1030F1CBF0EFA7C
S21400439009F9C84446F80C8054B1D7F808C04FEA6B
S2140043A09C7CBCF1030F1CBF0EFA0CFC64447C60C2
S2140043B001248440224800293ED08461DFF880C072
S2140043C0CCF83040B86820F47F5020F0370040F03A
S2140043D0030040EA0E10B860DCF808E006EB0E00BA
S2140043E0C7681FB14FF0010C87F808C04BB187684B
S2140043F0C7F38167032F1CBF05FA07F7DB1946F8DA
S2140044000E303AB183689B0F032B1CBF05FA03F3EB
S214004410D21842600A4B89B19C61094A546383688A
S21400442023F47F5323F0370343F0030343EA0513D3
S21400443083609462BDE8F087C461BFE7DC61ECE7A7
S21400444000200C40124A936803EB001330B40C783B
S2140044508D68DD600123834074B193634A784D68AC
S2140044600B4C00F5886144F821503AB9094B0344D7
S2140044709B0030BC1A607047D363EFE7054A0244DE
S214004480920041F2080001212350116030BC7047B1
S21400449000200C406080E110F0B40D4BA9B9DD6837
S2140044A01178967814795778D378890741EA067197
S2140044B041EA8762A10405EB001042EA066241EA7F
S2140044C0833313438360F0BC70479D68E8E700BF02
S2140044D000200C402DE9F04F012183B006462E48FF
S2140044E02E4DDFF8C4B0FFF7B7FC2D4A73682D4990
S2140044F0019341F20C0741F2080A0023012440F61A
S214004500FF7002F58859C5F8804001F58858536059
S21400451041F2041CD06141F2081E5062D062506322
S214004520D063D46441F20C10D35142F80AB041F281
S214004530101AC9F8003041F21419C8F8003041F8D2
S2140045400C3041F2181841F80E3041F21C1C0B508A
S21400455001F5895E41F80A3041F2241041F2281A2A
S21400456041F809304FF0004941F8083041F80C3066
S214004570CEF800300B5041F80A30C5F88041019B58
S2140045802C6042F80790936033785B0123435360B6
S21400459003B0BDE8F08F00BF0003020000E100E0BA
S2140045A000200C4004200C40FF0F0080F0B49DF863
S2140045B01840049F059E002C14BF0125032531B327
S2140045C01749896801EB001147B18C68C4F3816410
S2140045D0032C1CBF06FA04F43F190F603BB18C682D
S2140045E0A40F032C1CBF06FA04F41B194B6001230E
S2140045F083408AB90A4AD3618B6823F47F5323F039
S214004600370343EA06132B438B60F0BC704704491C
S214004610C96801EB0011D7E7014A9361ECE700BFD8
S21400462000200C40CE4BC2682DE9F04FD3F8009026
S214004630477849F08045002A00F0D5820023DFF84D
S21400464044B3DFF844A3DFF84483DFF824C3DFF87D
S21400465040E3194602F00204002C02F004061CBFD8
S21400466002215B4602F00804002E1CBF04215346BC
S214004670002C18BF434602F010064FEA431418BF3A
S214004680082104F18444002E04F110046FEA0106A8
S2140046901FBF74466FF01006634610213240276035
S2140046A0D8D1C36890F802A0002B00F03A83DFF858
S2140046B0D4B2DFF8D482DFF8D4C2DFF8B4E2A94F70
S2140046C0114603F00204002C03F004061CBF02216E
S2140046D05A4603F00804002E1CBF04214246002C54
S2140046E018BF624603F010064FEA421418BF0821AE
S2140046F004F18444002E04F10C046FEA01061FBF87
S2140047003C466FF01006724610213340C4F800A0F5
S214004710D7D1C26890F803A0002A00F06382DFF8C1
S21400472064B2DFF86482DFF864C2DFF844E28E4FDA
S214004730194602F00204002C02F004061CBF0221F7
S2140047405B4602F00804002E1CBF04214346002CE2
S21400475018BF634602F010064FEA431418BF08213C
S21400476004F18444002E04F108046FEA01061FBF1A
S2140047703C466FF01006734610213240C4F800A085
S214004780D7D1C36890F804A0002B00F0CA82DFF8E7
S214004790F4B1DFF8F481DFF8F4C1DFF8D4E1734F49
S2140047A0114603F00204002C03F004061CBF02218D
S2140047B05A4603F00804002E1CBF04214246002C73
S2140047C018BF624603F010064FEA421418BF0821CD
S2140047D004F18444002E04F104046FEA01061FBFAE
S2140047E03C466FF01006724610213340C4F800A015
S2140047F0D7D1C26890F805A0002A00F0F381DFF850
S2140048008481DFF884C1DFF884E1594F594E194698
S21400481002F00204002C02F0040B1CBF02214346E7
S21400482002F00804BBF1000F1CBF04216346002CF5
S21400483018BF734602F0100B18BF082103F104746A
S214004840BBF1000F4FEA44146FEA010B1FBF34465A
S2140048506FF0100B3B46102112EA0B02C4F800A0C2
S214004860D6D1C46890F80680002C00F05A82DFF893
S21400487014A1DFF814C1DFF814E13D4F3E4E134695
S21400488004F00201002904F0040B1CBF0223524668
S21400489004F00801BBF1000F1CBF04236246002988
S2140048A018BF724604F0100B4FEA421118BF0823D7
S2140048B001F18441BBF1000F01F114016FEA030B13
S2140048C01FBF31466FF0100B3A46102314EA0B0454
S2140048D0C1F80080D4D1C26812F0020600F08381CD
S2140048E02649077890F8098090F80AC0C57990F8AC
S2140048F008E090F84C3009EA010141EA070444F068
S214004900804444EA084444EA4C4141EA056141EAED
S2140049100E35002B00F0038212F0040C45F480756F
S214004920964640F0678112F0080333D0417A90F83B
S2140049300AA0C27990F80890114C90F84C800905AE
S21400494041EA4A5141EA826242EA893242EA071261
S2140049502C4042EA0405B8F1000F40F0DD8119E072
S214004960008000408C0810428808104284081042DC
S214004970448000408008104294081042FCEEFCFE82
S214004980CFBBCFFB10800040248000403480004026
S214004990900810421EF0100E18D0417A90F80AA027
S2140049A0C27990F80890A24C90F84C80890541EAAC
S2140049B0CA5141EAC26242EAC93242EA87122C4030
S2140049C042EA0405B8F1000F40F0A381846A416A08
S2140049D0026A240444EA012111433EB1954CA268C0
S2140049E022F0031222F47C520A43A260BCF1000FAC
S2140049F007D0904CE26922F0031222F47C520A435C
S214004A00E2613BB18B4CE26A22F0031222F47C5244
S214004A100A43E262BEF1000F07D0864CE26B22F03A
S214004A20031222F47C521143E16390F82C4090F874
S214004A302D1090F82E204EB1DFF84092DFF840821D
S214004A407D4EC9F80040C8F800103260BCF1000F77
S214004A5009D0DFF83082DFF830C2784EC8F8004060
S214004A60CCF8001032603BB1DFF820C2744E754BB4
S214004A70CCF8004031601A60BEF1000F07D0DFF8B6
S214004A8010E2714E714BCEF8004031601A60826BB6
S214004A90446BC368016B120442EA042213F0020658
S214004AA042EA010207D0634CE16821F0031121F4C9
S214004AB07C511143E16013F004040AD0DFF874E17E
S214004AC0DEF8201021F0031121F47C511143CEF8BA
S214004AD0201013F0080E0AD0DFF858C1DCF83010AA
S214004AE021F0031121F47C511143CCF8301013F05F
S214004AF010030AD0DFF83CC1DCF8401021F00311A7
S214004B0021F47C510A43CCF8402090F83C1090F8F1
S214004B103D202EB1DFF87CC14D4ECCF8001032603F
S214004B201CB14C4E4C4C31602260BEF1000F03D0DD
S214004B304A4E4B4C316022601BB14A4C4A4B2160B6
S214004B401A60C3688169426913F0020642EA0122CC
S214004B5007D0384C616821F4407121F003011143FD
S214004B60616013F004040AD0DFF8C8E0DEF818101D
S214004B7021F4407121F003011143CEF8181013F010
S214004B80080E0AD0DFF8ACC0DCF8281021F440711B
S214004B9021F003011143CCF8281013F010030AD0BB
S214004BA0DFF890C0DCF8381021F4407121F00301E2
S214004BB00A43CCF83820027F0EB12C490A600CB1AB
S214004BC02B490A60BEF1000F01D02A490A600BB1DA
S214004BD0294B1A60174B1D60032F62D8DFE807F0D9
S214004BE05E95955E1A4607789646002612F0040CE7
S214004BF03FF499AE447A817AC37990F808A0DFF83A
S214004C00988090F84C90A40444EAC14141EA43617C
S214004C1041EA4A3305EA080843EA080545EA8705F3
S214004C20B9F1000F3FF47FAE45F400757BE600BF98
S214004C303F773FF70080004070011042F0031042BB
S214004C40F4051042F0051042F4071042F007104237
S214004C50F0011042740410427004104274061042B0
S214004C60700610427408104270081042F00010429D
S214004C70700310427005104270071042780110420F
S214004C8074011042F8031042F4031042F805104273
S214004C90F8071042F4011042F3DDF3FD244B002226
S214004CA01A60244B026C5E69446C816C26F44036B4
S214004CB032435A615A6922F4F80222435A615A6909
S214004CC022F0E0420A4315F0706F5A6102D01A4B88
S214004CD0C2791A60194B01221A600369980744BF0B
S214004CE017490A60590702D5164A012111601A07AA
S214004CF002D5154A01211160DB0604D5134B0122AB
S214004D001A60BDE8F08FBDE8F08F094B01221A60EB
S214004D10C7E745F4006559E645F480653AE69646E9
S214004D2064E700231E469E469C46077832E600BF90
S214004D3094021042008000409C0210428002104202
S214004D4084021042880210428C02104290021042E6
S214004D5030B4094D847801790378EA6AC078214333
S214004D6041EA034122F4803323F00F0341EA400274
S214004D701343EB6230BC704700600C40F0B5072A66
S214004D809DF814509DF818401DD9DFF864E0A2F194
S214004D9008018900DEF8006007278F40884026EA71
S214004DA007010843CEF800000E490F4E1144890053
S214004DB0012000FA02F20B60C1F88050C6F81C21F0
S214004DC0C1F80041F0BD094F4FEA820E3E68072148
S214004DD001FA0EF100FA0EF026EA010108433860E7
S214004DE0E2E700BF4008831000600040006100401A
S214004DF004610040F0B5C4004AB1B3B32518AD0055
S214004E0005F1804505F5C04501268E402E61251822
S214004E10AD0005F18045072905F5C04515D84FEAD0
S214004E20810E6F680F2606FA0EF627EA060702FAC4
S214004E300EF63E436E603AB92044F3B9134B800039
S214004E40034401228A405A60F0BD01F18046083EC4
S214004E50AF68B6004FF00F0E0EFA06FE27EA0E07F2
S214004E6002FA06F63E43AE60E5E72618074DB600A2
S214004E70354401268E406E60C9E7800000F1804010
S214004E8000F5C04001238B400361F0BD1060004078
S214004E902DE9F84F05461446036B107E526900292B
S214004EA06ED123F04F03002842EA030294F8201044
S214004EB014BF4023002313432B63002940F0CF8008
S214004EC0EA6A636A22F03F021343EB62D4F804B046
S214004ED0A6682069A189227894F81BA0637894F8C4
S214004EE01C9094F81D8094F81EC094F819E0A77ED4
S214004EF0E47F4BEA0606304301430A43BAF1000F4B
S214004F0043EA020314BF4FF080660026B9F1000F93
S214004F1014BF4FF4005000203343B8F1000F14BF05
S214004F204FF48051002103430B43EB65AB6843F01D
S214004F300103AB606B6D23F04013BCF1000F23F44C
S214004F40405314BF4FF48002002243F00103BEF129
S214004F50000F43EA020314BF4FF480520022002FD2
S214004F6043EA020314BF4FF400520022002C43EA27
S214004F70020314BF4022002213436B65BDE8F88F7E
S214004F80012994F8201074D0002823F49E4343EAA5
S214004F90022314BF4FF48042002213432B630029E0
S214004FA040F0D480AA6D636A22F03F021343AB65DB
S214004FB0D4F804B0A6682069A189227894F81BA0CA
S214004FC0637894F81C9094F81D8094F81EC094F8AA
S214004FD019E0A77EE47F4BEA0606304301430A4306
S214004FE0BAF1000F43EA020314BF4FF080660026B2
S214004FF0B9F1000F14BF4FF4005000203343B8F14E
S214005000000F14BF4FF48051002103430B436B661F
S2140050106B6D23F00123BCF1000F23F4403314BF63
S2140050204FF08072002243F00403BEF1000F43EA03
S214005030020314BF4FF480320022002F43EA02031B
S21400504014BF4FF400320022002C43EA020314BFC0
S2140050504FF48072002213436B65BDE8F88F05F1AC
S2140050602C0000F03DF9EB6A23F03F031843E8629A
S2140050702CE723F04F03002842EA030214BF402324
S214005080002313432B6300296AD1EB6A626A23F478
S2140050907C5343EA0223EB62D4F804B0A668206986
S2140050A0A189227894F81BA0637894F81C9094F851
S2140050B01D8094F81EC094F819E0A77EE47F4BEAA2
S2140050C00606304301430A43BAF1000F43EA0203DF
S2140050D014BF4FF080600020B9F1000F14BF4FF4EA
S2140050E0005100210343B8F1000F14BF4FF4805263
S2140050F000220B4313432B66EB6843F00103EB607F
S2140051006B6D23F08013BCF1000F23F4404314BFF3
S2140051104FF40002002243F00203BEF1000F43EA00
S214005120020314BF4FF480420022002F43EA02031A
S21400513014BF4FF400420022002C43EA020314BFBF
S2140051408022002213436B65BDE8F88F05F15800F6
S21400515000F0C6F8AB6D23F03F031843A86527E7B9
S21400516005F12C0000F0BCF8EB6A23F47C53EB62EC
S21400517092E700BF02F00702134301F47C110430EB
S214005180024A194342F82010704700BF00C00C4086
S21400519090FAA0F0B0FA80F000F1875000F5A02059
S2140051A000314FEA800018BF01210160704700BF40
S2140051B00B4B0C4901229A608B6813400BD00A48AF
S2140051C010B400234AF6E8548C6002605DF8044B85
S2140051D003608B60704704490A600B60704700BF2D
S2140051E000A00C4000600C4080048C433B4B5B6886
S2140051F003F001029907104604D513F0810F08BF8B
S21400520042F00200590704D513F0910F08BF40F092
S2140052100400190701D5002A5CD0D90603D59907E2
S21400522008BF40F01000990604D54EF6DF7119400D
S21400523000294CD0590604D54EF69F711940002916
S21400524042D0190604D540F219711940002938D009
S214005250D90503D540F21961194079B3990503D5EC
S21400526040F21F41194031B3590503D540F21F21C2
S2140052701940E9B1190500D5BAB1D90400D58AB1EB
S214005280990400D55AB1590400D52AB11B0402D599
S2140052900AB940F40040704740F48040F6E740F416
S2140052A00050F0E740F48050EAE740F40060E4E79E
S2140052B040F48060DEE740F40070D5E740F480708C
S2140052C0CCE740F08000C3E740F04000B9E740F08C
S2140052D02000AFE740F008009FE700BF00A00C40AA
S2140052E0084B094904E0904208D008338B4203D0AB
S2140052F01A68B2F1FF3FF6D1002070475B68036082
S214005300012070470080E00FB081E00F2DE9F04FDC
S2140053100C780CB902234360CA7891F802B00B7A75
S21400532091F801A091F8069091F8078091F809C0CD
S21400533091F80AE0CF7A0E794D79097B120442EA99
S2140053400B6B4BEA030343EA8929BAF1000F14BF3B
S2140053504023002349EA0828BCF1000F14BF80222E
S214005360002248EA0303BEF1000F43EA020314BF1B
S21400537020220022002F43EA020314BF102200223C
S214005380002E43EA020314BF4FF400560026002DF9
S21400539043EA060314BF4FF080520022002942EA77
S2140053A0030214BF08230023134300224262036053
S2140053B00CB101234360BDE8F08F00BF70B400233A
S2140053C0022640F273754FF6FF744CF680610F228A
S2140053D046600360C36085610362C461436270BC5B
S2140053E003634363C36303644364C3640365436541
S2140053F0C365C0F88810036743678367C367C0F850
S2140054008420704738B50546144619B90548FEF796
S2140054104BFC014601396400B1FBF4F109026961F5
S21400542038BD00BF408104002B4AF8B5044600236F
S21400543040F6AA6741F2050641F6F9709442E76025
S2140054400D4623606660A3606361E364A0646365E1
S2140054503ED0224AA365944237D0214B9C4234D09A
S2140054602B8AAE7B2268287DA97C43F00103002EA0
S2140054709BB243EA020314BF4FF480620022134338
S21400548023602368002814BF4FF000520022134305
S214005490236019B1EB7C43F01003A3652B7B68688F
S2140054A0AE6843F48053636010B90E48FEF7FCFB09
S2140054B06B7B01387600B0FBF6F0000260610BB142
S2140054C01023E3602B78E360F8BD0023E365C7E7AD
S2140054D02365A365C4E700BF00C0004000C40040C9
S2140054E000C800404081040003695A06FCD54163A9
S2140054F003699B06FCD5C069C0B270470368DB062B
S21400550010D451B900F104725201136853B1836884
S21400551013F00103FBD11360704700F104704001E3
S21400552001230360704700BF0368D90707D5836867
S2140055309A0704D48368DB07FCD4012343607047D2
S2140055404A780B780AB143F002038A780AB143F02E
S2140055500403CA780AB143F008030A790AB143F093
S21400556020034A790AB143F040038A790AB143F02E
S2140055701003CA79097A120342EA01221A438368A1
S214005580DB07FCD40260704770B51F4D1F4E0FCD71
S21400559086B06C460FC495E8030084E803001C48F8
S2140055A00121FEF759FC1B480121FEF755FC1A4B5A
S2140055B01A4A0292012430460C2269461A608DF877
S2140055C00E40FFF731FF40F20B137365336843F06C
S2140055D0004333602046032104220023FFF70AFC21
S2140055E02046234604210222FFF704FC20462346D9
S2140055F006210422FFF7FEFB204605210422002395
S214005600FFF7F8FB06B070BD78D0000000C8004079
S2140056100022040000D20400C4100020A08601006E
S214005620044A136801460BB1013B13600248FFF7BA
S2140056305BBF00BFC810002000C80040054B064AEC
S2140056404021596313680BB1013B13600348FF21E7
S214005650FFF74ABF00600040C810002000C80040A6
S214005660144A154B402170B591631C68134D4FF4D6
S214005670FA7303FB04F42E4601E0013C0BD02B68C2
S2140056800F48FF210BB1013B3360FFF72DFFFF28CA
S214005690F3D1012070BD074B084940225A632B689E
S2140056A00BB1013B0B60FF210548FFF71DFF0020F3
S2140056B070BD00BF00600040C4100020C81000206D
S2140056C000C8004001480121FEF7C6BB00220400C6
S2140056D01B4A1C4B402170B591631C681A4D4FF451
S2140056E0FA7303FB04F42E4601E0013C1BD02B6842
S2140056F01648FF210BB1013B3360FFF7F5FEFF288C
S214005700F3D10F4B104940225A632B680BB1013B73
S2140057100B60FF210D48FFF7E7FE0D480021BDE8AE
S2140057207040FEF799BB064B074940225A632B6828
S2140057300BB1013B0B60FF210448FFF7D5FEE0E705
S21400574000600040C4100020C810002000C80040C0
S214005750002204002DE9F8432B4BDFF8B4801C68C8
S214005760642307460E4603FB04F4C14601E0013CF1
S21400577047D0264DD8F800302846FF2113B1013B0C
S214005780C9F80030FFF7B0FEFF28F0D0FE2838D169
S21400579068682C686B6823F00F0343F00D036B609A
S2140057A02B684FF4406243F080532B60EA60D8F8D1
S2140057B00030164DB21C9A429ABF023B9B1B002338
S2140057C04FF6FF71C8F800302A460237E963D16306
S2140057D013691B06FCD56B6A07F8023C023EC3F34E
S2140057E0072307F8013C07F10207F0D107490B69C8
S2140057F0064A1B06FBD5536A506001201460BDE8BC
S214005800F8830020BDE8F883C410002000C80040DC
S214005810C81000203F4B2DE9F0411D683E4C4FF468
S214005820FA730646884603FB05F5274601E0013D68
S2140058306AD023683948FF210BB1013B3B60FFF774
S21400584053FEFF28F3D12368334A0BB1013B1360A4
S214005850324D41462846FFF747FEB8F1FD0F56D0B9
S214005860D5F80480D5F800C06B6823F00F0343F02A
S2140058700D036B602B684FF4406243F080532B603F
S214005880EA60236840F201229342244A8CBFA3F2C6
S214005890022E4FF0000EC4F800E01746B11C06F2C8
S2140058A0022511F8010C11F8023C43EA00201369A6
S2140058B05E06FCD50231A942F863F2D117490A699F
S2140058C0164B5006FBD54FF6FF72DA631A6913497A
